{
  "contractName": "ACL",
  "abi": [
    {
      "constant": true,
      "inputs": [
        {
          "name": "",
          "type": "uint256"
        }
      ],
      "name": "devices",
      "outputs": [
        {
          "name": "deviceId",
          "type": "uint256"
        },
        {
          "name": "deviceName",
          "type": "string"
        },
        {
          "name": "imageUrl",
          "type": "string"
        },
        {
          "name": "defaultOwner",
          "type": "address"
        }
      ],
      "payable": false,
      "stateMutability": "view",
      "type": "function"
    },
    {
      "constant": true,
      "inputs": [],
      "name": "permissionsCount",
      "outputs": [
        {
          "name": "",
          "type": "uint256"
        }
      ],
      "payable": false,
      "stateMutability": "view",
      "type": "function"
    },
    {
      "constant": true,
      "inputs": [],
      "name": "devicesCount",
      "outputs": [
        {
          "name": "",
          "type": "uint256"
        }
      ],
      "payable": false,
      "stateMutability": "view",
      "type": "function"
    },
    {
      "constant": true,
      "inputs": [
        {
          "name": "",
          "type": "address"
        },
        {
          "name": "",
          "type": "uint256"
        }
      ],
      "name": "devicePermissions",
      "outputs": [
        {
          "name": "",
          "type": "uint256"
        }
      ],
      "payable": false,
      "stateMutability": "view",
      "type": "function"
    },
    {
      "constant": true,
      "inputs": [
        {
          "name": "",
          "type": "address"
        },
        {
          "name": "",
          "type": "uint256"
        }
      ],
      "name": "userDevices",
      "outputs": [
        {
          "name": "",
          "type": "uint256"
        }
      ],
      "payable": false,
      "stateMutability": "view",
      "type": "function"
    },
    {
      "inputs": [],
      "payable": false,
      "stateMutability": "nonpayable",
      "type": "constructor"
    },
    {
      "anonymous": false,
      "inputs": [
        {
          "indexed": false,
          "name": "deviceId",
          "type": "uint256"
        },
        {
          "indexed": false,
          "name": "deviceName",
          "type": "string"
        }
      ],
      "name": "deviceAdded",
      "type": "event"
    },
    {
      "anonymous": false,
      "inputs": [
        {
          "indexed": false,
          "name": "deviceId",
          "type": "uint256"
        },
        {
          "indexed": false,
          "name": "deviceName",
          "type": "string"
        }
      ],
      "name": "deviceDeleted",
      "type": "event"
    },
    {
      "anonymous": false,
      "inputs": [
        {
          "indexed": false,
          "name": "deviceId",
          "type": "uint256"
        },
        {
          "indexed": false,
          "name": "deviceName",
          "type": "string"
        },
        {
          "indexed": false,
          "name": "user",
          "type": "address"
        }
      ],
      "name": "deviceCheckedPermission",
      "type": "event"
    },
    {
      "anonymous": false,
      "inputs": [
        {
          "indexed": false,
          "name": "deviceId",
          "type": "uint256"
        },
        {
          "indexed": false,
          "name": "deviceName",
          "type": "string"
        },
        {
          "indexed": false,
          "name": "user",
          "type": "address"
        }
      ],
      "name": "deviceAddedPermission",
      "type": "event"
    },
    {
      "anonymous": false,
      "inputs": [
        {
          "indexed": false,
          "name": "user",
          "type": "address"
        }
      ],
      "name": "getDevices",
      "type": "event"
    },
    {
      "constant": true,
      "inputs": [
        {
          "name": "index",
          "type": "address"
        }
      ],
      "name": "getUserDevices",
      "outputs": [
        {
          "name": "",
          "type": "uint256[]"
        }
      ],
      "payable": false,
      "stateMutability": "view",
      "type": "function"
    },
    {
      "constant": true,
      "inputs": [
        {
          "name": "index",
          "type": "address"
        }
      ],
      "name": "getDevicePermissions",
      "outputs": [
        {
          "name": "",
          "type": "uint256[]"
        }
      ],
      "payable": false,
      "stateMutability": "view",
      "type": "function"
    },
    {
      "constant": false,
      "inputs": [
        {
          "name": "deviceName",
          "type": "string"
        },
        {
          "name": "imageUrl",
          "type": "string"
        }
      ],
      "name": "addDevice",
      "outputs": [
        {
          "name": "",
          "type": "uint256[]"
        }
      ],
      "payable": false,
      "stateMutability": "nonpayable",
      "type": "function"
    },
    {
      "constant": false,
      "inputs": [
        {
          "name": "deviceId",
          "type": "uint256"
        }
      ],
      "name": "deleteDevice",
      "outputs": [
        {
          "name": "",
          "type": "uint256[]"
        }
      ],
      "payable": false,
      "stateMutability": "nonpayable",
      "type": "function"
    },
    {
      "constant": false,
      "inputs": [
        {
          "name": "deviceId",
          "type": "uint256"
        },
        {
          "name": "userTarget",
          "type": "address"
        }
      ],
      "name": "addPermission",
      "outputs": [],
      "payable": false,
      "stateMutability": "nonpayable",
      "type": "function"
    },
    {
      "constant": false,
      "inputs": [],
      "name": "getDevicesByUser",
      "outputs": [
        {
          "name": "",
          "type": "uint256[]"
        }
      ],
      "payable": false,
      "stateMutability": "nonpayable",
      "type": "function"
    },
    {
      "constant": false,
      "inputs": [
        {
          "name": "deviceId",
          "type": "uint256"
        }
      ],
      "name": "getDevice",
      "outputs": [
        {
          "components": [
            {
              "name": "deviceId",
              "type": "uint256"
            },
            {
              "name": "deviceName",
              "type": "string"
            },
            {
              "name": "imageUrl",
              "type": "string"
            },
            {
              "name": "defaultOwner",
              "type": "address"
            }
          ],
          "name": "",
          "type": "tuple"
        }
      ],
      "payable": false,
      "stateMutability": "nonpayable",
      "type": "function"
    },
    {
      "constant": true,
      "inputs": [
        {
          "name": "deviceId",
          "type": "uint256"
        }
      ],
      "name": "checkPermission",
      "outputs": [
        {
          "name": "",
          "type": "bool"
        }
      ],
      "payable": false,
      "stateMutability": "view",
      "type": "function"
    }
  ],
  "bytecode": "0x608060405234801561001057600080fd5b50611a75806100206000396000f3006080604052600436106100c5576000357c0100000000000000000000000000000000000000000000000000000000900463ffffffff16806305f39532146100ca57806309f110b11461010757806310ff8e31146101445780633e0214d014610184578063443eea4c146101af5780634cd8ff8b146101da578063768d4fd214610217578063a05edf5414610254578063ab7394991461027f578063b85d8261146102bc578063bec6d764146102f9578063c4be240b14610322578063d5928be91461035f575b600080fd5b3480156100d657600080fd5b506100f160048036036100ec919081019061145d565b61039c565b6040516100fe9190611777565b60405180910390f35b34801561011357600080fd5b5061012e6004803603610129919081019061152e565b610433565b60405161013b91906117b4565b60405180910390f35b34801561015057600080fd5b5061016b6004803603610166919081019061152e565b610605565b60405161017b9493929190611821565b60405180910390f35b34801561019057600080fd5b50610199610785565b6040516101a69190611777565b60405180910390f35b3480156101bb57600080fd5b506101c461081a565b6040516101d191906117d6565b60405180910390f35b3480156101e657600080fd5b5061020160048036036101fc919081019061145d565b610820565b60405161020e9190611777565b60405180910390f35b34801561022357600080fd5b5061023e6004803603610239919081019061152e565b6108b7565b60405161024b9190611777565b60405180910390f35b34801561026057600080fd5b50610269610b8c565b60405161027691906117d6565b60405180910390f35b34801561028b57600080fd5b506102a660048036036102a1919081019061152e565b610b92565b6040516102b39190611799565b60405180910390f35b3480156102c857600080fd5b506102e360048036036102de91908101906114c2565b610ba5565b6040516102f09190611777565b60405180910390f35b34801561030557600080fd5b50610320600480360361031b9190810190611557565b610e3b565b005b34801561032e57600080fd5b5061034960048036036103449190810190611486565b610f0d565b60405161035691906117d6565b60405180910390f35b34801561036b57600080fd5b5061038660048036036103819190810190611486565b610f3d565b60405161039391906117d6565b60405180910390f35b6060600260008373ffffffffffffffffffffffffffffffffffffffff1673ffffffffffffffffffffffffffffffffffffffff16815260200190815260200160002080548060200260200160405190810160405280929190818152602001828054801561042757602002820191906000526020600020905b815481526020019060010190808311610413575b50505050509050919050565b61043b61123a565b600360008381526020019081526020016000206080604051908101604052908160008201548152602001600182018054600181600116156101000203166002900480601f0160208091040260200160405190810160405280929190818152602001828054600181600116156101000203166002900480156104fd5780601f106104d2576101008083540402835291602001916104fd565b820191906000526020600020905b8154815290600101906020018083116104e057829003601f168201915b50505050508152602001600282018054600181600116156101000203166002900480601f01602080910402602001604051908101604052809291908181526020018280546001816001161561010002031660029004801561059f5780601f106105745761010080835404028352916020019161059f565b820191906000526020600020905b81548152906001019060200180831161058257829003601f168201915b505050505081526020016003820160009054906101000a900473ffffffffffffffffffffffffffffffffffffffff1673ffffffffffffffffffffffffffffffffffffffff1673ffffffffffffffffffffffffffffffffffffffff16815250509050919050565b6003602052806000526040600020600091509050806000015490806001018054600181600116156101000203166002900480601f0160208091040260200160405190810160405280929190818152602001828054600181600116156101000203166002900480156106b75780601f1061068c576101008083540402835291602001916106b7565b820191906000526020600020905b81548152906001019060200180831161069a57829003601f168201915b505050505090806002018054600181600116156101000203166002900480601f0160208091040260200160405190810160405280929190818152602001828054600181600116156101000203166002900480156107555780601f1061072a57610100808354040283529160200191610755565b820191906000526020600020905b81548152906001019060200180831161073857829003601f168201915b5050505050908060030160009054906101000a900473ffffffffffffffffffffffffffffffffffffffff16905084565b6060600260003373ffffffffffffffffffffffffffffffffffffffff1673ffffffffffffffffffffffffffffffffffffffff16815260200190815260200160002080548060200260200160405190810160405280929190818152602001828054801561081057602002820191906000526020600020905b8154815260200190600101908083116107fc575b5050505050905090565b60015481565b6060600460008373ffffffffffffffffffffffffffffffffffffffff1673ffffffffffffffffffffffffffffffffffffffff1681526020019081526020016000208054806020026020016040519081016040528092919081815260200182805480156108ab57602002820191906000526020600020905b815481526020019060010190808311610897575b50505050509050919050565b606060006060600060606108cb3387610f6d565b15156108d657600080fd5b61091e86600260003373ffffffffffffffffffffffffffffffffffffffff1673ffffffffffffffffffffffffffffffffffffffff168152602001908152602001600020610fdc565b9350935083151561092e57600080fd5b82600260003373ffffffffffffffffffffffffffffffffffffffff1673ffffffffffffffffffffffffffffffffffffffff1681526020019081526020016000209080519060200190610981929190611279565b506109ca86600460003373ffffffffffffffffffffffffffffffffffffffff1673ffffffffffffffffffffffffffffffffffffffff168152602001908152602001600020610fdc565b915091508115156109da57600080fd5b80600460003373ffffffffffffffffffffffffffffffffffffffff1673ffffffffffffffffffffffffffffffffffffffff1681526020019081526020016000209080519060200190610a2d929190611279565b507faff17fc9aa60680e5f86f048f99531c0bd2419b4ca5fb254888fa424da08a3028660036000898152602001908152602001600020600101604051610a74929190611874565b60405180910390a160036000878152602001908152602001600020600080820160009055600182016000610aa891906112c6565b600282016000610ab891906112c6565b6003820160006101000a81549073ffffffffffffffffffffffffffffffffffffffff02191690555050600080815480929190600190039190505550600260003373ffffffffffffffffffffffffffffffffffffffff1673ffffffffffffffffffffffffffffffffffffffff168152602001908152602001600020805480602002602001604051908101604052809291908181526020018280548015610b7c57602002820191906000526020600020905b815481526020019060010190808311610b68575b5050505050945050505050919050565b60005481565b6000610b9e338361114f565b9050919050565b6060600080815480929190600101919050555060806040519081016040528060005481526020018481526020018381526020013373ffffffffffffffffffffffffffffffffffffffff168152506003600080548152602001908152602001600020600082015181600001556020820151816001019080519060200190610c2c92919061130e565b506040820151816002019080519060200190610c4992919061130e565b5060608201518160030160006101000a81548173ffffffffffffffffffffffffffffffffffffffff021916908373ffffffffffffffffffffffffffffffffffffffff160217905550905050600260003373ffffffffffffffffffffffffffffffffffffffff1673ffffffffffffffffffffffffffffffffffffffff1681526020019081526020016000206000549080600181540180825580915050906001820390600052602060002001600090919290919091505550600460003373ffffffffffffffffffffffffffffffffffffffff1673ffffffffffffffffffffffffffffffffffffffff16815260200190815260200160002060005490806001815401808255809150509060018203906000526020600020016000909192909190915055507fea8cf3fd663f00ae8821edf5e0b975fab9675614718aab9f7d8c6b236b7ada8260005484604051610d9d9291906117f1565b60405180910390a1600260003373ffffffffffffffffffffffffffffffffffffffff1673ffffffffffffffffffffffffffffffffffffffff168152602001908152602001600020805480602002602001604051908101604052809291908181526020018280548015610e2e57602002820191906000526020600020905b815481526020019060010190808311610e1a575b5050505050905092915050565b610e453383610f6d565b1515610e5057600080fd5b7f1842c31a09462f938c2e54f7072eab44b558d3b1f37e56d580f0137dafd38440826003600085815260200190815260200160002060010183604051610e98939291906118a4565b60405180910390a1600460008273ffffffffffffffffffffffffffffffffffffffff1673ffffffffffffffffffffffffffffffffffffffff1681526020019081526020016000208290806001815401808255809150509060018203906000526020600020016000909192909190915055505050565b600460205281600052604060002081815481101515610f2857fe5b90600052602060002001600091509150505481565b600260205281600052604060002081815481101515610f5857fe5b90600052602060002001600091509150505481565b60008273ffffffffffffffffffffffffffffffffffffffff166003600084815260200190815260200160002060030160009054906101000a900473ffffffffffffffffffffffffffffffffffffffff1673ffffffffffffffffffffffffffffffffffffffff1614905092915050565b60006060600080600091505b84805490508210156110ec57848281548110151561100257fe5b90600052602060002001548614156110df578190505b600185805490500382101561106c57846001820181548110151561103857fe5b9060005260206000200154858281548110151561105157fe5b90600052602060002001819055508180600101925050611018565b84805480919060019003611080919061138e565b50600185808054806020026020016040519081016040528092919081815260200182805480156110cf57602002820191906000526020600020905b8154815260200190600101908083116110bb575b5050505050905093509350611146565b8180600101925050610fe8565b6000858080548060200260200160405190810160405280929190818152602001828054801561113a57602002820191906000526020600020905b815481526020019060010190808311611126575b50505050509050935093505b50509250929050565b60006060600080600460008773ffffffffffffffffffffffffffffffffffffffff1673ffffffffffffffffffffffffffffffffffffffff1681526020019081526020016000208054806020026020016040519081016040528092919081815260200182805480156111df57602002820191906000526020600020905b8154815260200190600101908083116111cb575b50505050509250600091505b825182101561122c57828281518110151561120257fe5b9060200190602002015190508481141561121f5760019350611231565b81806001019250506111eb565b600093505b50505092915050565b608060405190810160405280600081526020016060815260200160608152602001600073ffffffffffffffffffffffffffffffffffffffff1681525090565b8280548282559060005260206000209081019282156112b5579160200282015b828111156112b4578251825591602001919060010190611299565b5b5090506112c291906113ba565b5090565b50805460018160011615610100020316600290046000825580601f106112ec575061130b565b601f01602090049060005260206000209081019061130a91906113ba565b5b50565b828054600181600116156101000203166002900490600052602060002090601f016020900481019282601f1061134f57805160ff191683800117855561137d565b8280016001018555821561137d579182015b8281111561137c578251825591602001919060010190611361565b5b50905061138a91906113ba565b5090565b8154818355818111156113b5578183600052602060002091820191016113b491906113ba565b5b505050565b6113dc91905b808211156113d85760008160009055506001016113c0565b5090565b90565b60006113eb82356119be565b905092915050565b600082601f830112151561140657600080fd5b81356114196114148261190f565b6118e2565b9150808252602083016020830185838301111561143557600080fd5b6114408382846119e8565b50505092915050565b600061145582356119de565b905092915050565b60006020828403121561146f57600080fd5b600061147d848285016113df565b91505092915050565b6000806040838503121561149957600080fd5b60006114a7858286016113df565b92505060206114b885828601611449565b9150509250929050565b600080604083850312156114d557600080fd5b600083013567ffffffffffffffff8111156114ef57600080fd5b6114fb858286016113f3565b925050602083013567ffffffffffffffff81111561151857600080fd5b611524858286016113f3565b9150509250929050565b60006020828403121561154057600080fd5b600061154e84828501611449565b91505092915050565b6000806040838503121561156a57600080fd5b600061157885828601611449565b9250506020611589858286016113df565b9150509250929050565b61159c81611988565b82525050565b60006115ad8261195a565b8084526020840193506115bf8361193b565b60005b828110156115f1576115d5868351611768565b6115de8261197b565b91506020860195506001810190506115c2565b50849250505092915050565b611606816119a8565b82525050565b600061161782611970565b80845261162b8160208601602086016119f7565b61163481611a2a565b602085010191505092915050565b600061164d82611965565b8084526116618160208601602086016119f7565b61166a81611a2a565b602085010191505092915050565b60008154600181166000811461169557600181146116b5576116f6565b607f600283041680865260ff1983166020870152604086019350506116f6565b600282048086526020860195506116cb85611948565b60005b828110156116ed578154818901526001820191506020810190506116ce565b80880195505050505b505092915050565b60006080830160008301516117166000860182611768565b506020830151848203602086015261172e8282611642565b915050604083015184820360408601526117488282611642565b915050606083015161175d6060860182611593565b508091505092915050565b611771816119b4565b82525050565b6000602082019050818103600083015261179181846115a2565b905092915050565b60006020820190506117ae60008301846115fd565b92915050565b600060208201905081810360008301526117ce81846116fe565b905092915050565b60006020820190506117eb6000830184611768565b92915050565b60006040820190506118066000830185611768565b8181036020830152611818818461160c565b90509392505050565b60006080820190506118366000830187611768565b81810360208301526118488186611642565b9050818103604083015261185c8185611642565b905061186b6060830184611593565b95945050505050565b60006040820190506118896000830185611768565b818103602083015261189b8184611678565b90509392505050565b60006060820190506118b96000830186611768565b81810360208301526118cb8185611678565b90506118da6040830184611593565b949350505050565b6000604051905081810181811067ffffffffffffffff8211171561190557600080fd5b8060405250919050565b600067ffffffffffffffff82111561192657600080fd5b601f19601f8301169050602081019050919050565b6000602082019050919050565b60008160005260206000209050919050565b600081519050919050565b600081519050919050565b600081519050919050565b6000602082019050919050565b600073ffffffffffffffffffffffffffffffffffffffff82169050919050565b60008115159050919050565b6000819050919050565b600073ffffffffffffffffffffffffffffffffffffffff82169050919050565b6000819050919050565b82818337600083830152505050565b60005b83811015611a155780820151818401526020810190506119fa565b83811115611a24576000848401525b50505050565b6000601f19601f83011690509190505600a265627a7a72305820d04ca92a524088dffd76a6447e947b44f9027be2b1fc718b41574d74318ce2ef6c6578706572696d656e74616cf50037",
  "source": "pragma experimental ABIEncoderV2;\n\n/**\n * The ACL contract does this and that...\n */\ncontract ACL {\n\n\tstruct Device {\n\t\tuint deviceId;\n\t\tstring deviceName;\n\t\tstring imageUrl;\n\t\taddress defaultOwner;\n\t}\n\n\tevent deviceAdded (uint deviceId, string deviceName);\n\tevent deviceDeleted (uint deviceId, string deviceName);\n\tevent deviceCheckedPermission(uint deviceId, string deviceName, address user);\n\tevent deviceAddedPermission(uint deviceId, string deviceName, address user);\n\tevent getDevices(address user);\n\n\tuint public devicesCount;\n\tuint public permissionsCount;\n\n\tmapping (address => uint[]) public userDevices;\n\tmapping (uint => Device) public devices;\n\tmapping (address => uint[]) public devicePermissions;\n\t\n\t\t\t\t\n\tconstructor() public {\n\t\t\n\t}\n\n\tfunction getUserDevices(address index) public view returns(uint[] memory) {\n\t\treturn userDevices[index];\n\t}\n\n\tfunction getDevicePermissions(address index) public view returns(uint[] memory) {\n\t\treturn devicePermissions[index];\n\t}\n\t\n\n\tfunction addDevice (string memory deviceName, string memory imageUrl) public returns(uint[] memory)  {\n\t\tdevicesCount ++;\n\t\tdevices[devicesCount] = Device(devicesCount, deviceName, imageUrl, msg.sender);\n\t\tuserDevices[msg.sender].push(devicesCount);\n\t\tdevicePermissions[msg.sender].push(devicesCount);\n\t\tdeviceAdded(devicesCount, deviceName);\n\t\treturn userDevices[msg.sender];\n\t}\n\n\tfunction deleteDevice (uint deviceId) public returns(uint[] memory){\n\t\t\n\t\trequire (checkOwner(msg.sender, deviceId));\n\n\t\t(bool status, uint[] memory newArray) = deleteElementInArray(deviceId, userDevices[msg.sender]);\n\n\t\trequire (status);\n\n\t\tuserDevices[msg.sender] = newArray;\n\n\t\t(bool statusPermission, uint[] memory newArrayPermissions) = deleteElementInArray(deviceId, devicePermissions[msg.sender]);\n\n\t\trequire (statusPermission);\n\t\tdevicePermissions[msg.sender] = newArrayPermissions;\n\n\t\tdeviceDeleted(deviceId, devices[deviceId].deviceName);\n\n\t\tdelete devices[deviceId];\n\t\tdevicesCount --;\n\t\t\n\t\treturn userDevices[msg.sender];\n\t}\n\t\n\tfunction checkPermission (uint deviceId) public view returns(bool) {\n\t\treturn checkPermission(msg.sender, deviceId);\n\t}\n\n\tfunction addPermission (uint deviceId, address userTarget) public {\n\t\t\n\t\trequire (checkOwner(msg.sender, deviceId));\n\n\t\tdeviceAddedPermission(deviceId, devices[deviceId].deviceName, userTarget);\n\t\tdevicePermissions[userTarget].push(deviceId);\n\t}\n\t\n\tfunction getDevicesByUser() public returns(uint[] memory){\n\t\treturn userDevices[msg.sender];\n\t}\n\n\tfunction getDevice(uint deviceId) public returns(Device memory){\n\t\treturn devices[deviceId];\n\t}\n\t\n\tfunction checkPermission(address user, uint deviceId) internal returns(bool){\n\t\tuint[] memory devPers= devicePermissions[user];\n\t\tfor(uint i = 0;i < devPers.length; i++) {\n\t\t\tuint temp = devPers[i];\n\t\t\tif(temp == deviceId) {\n\t\t\t\treturn true;\n\t\t\t}\n\t\t}\n\t\treturn false;\n\t}\n\t\n\tfunction checkOwner (address user, uint deviceId) internal returns(bool) {\n\t\treturn devices[deviceId].defaultOwner == user;\n\t}\n\n\tfunction deleteElementInArray(uint element, uint[] storage arr) internal returns(bool, uint[] memory) {\n\t\tfor(uint i = 0;i<arr.length;i++) {\n\t\t\tif(element == arr[i]) {\n\t\t\t\tfor(uint j = i;i<arr.length-1;i++) {\n\t\t\t\t\tarr[j] = arr[j+1];\n\t\t\t\t}\n\t\t\t\tarr.length --;\n\t\t\t\treturn (true, arr);\n\t\t\t}\n\t\t}\n\t\treturn (false, arr);\n\t}\n\t\n}\n\n",
  "sourcePath": "/home/rizqy/Documents/acl-blockchain/truffle-dummy/contracts/ACL.sol",
  "compiler": {
    "name": "solc",
    "version": "0.4.24+commit.e67f0147.Emscripten.clang"
  },
  "schemaVersion": "2.0.1",
  "updatedAt": "2018-12-18T18:55:01.039Z"
}