{
  "contractName": "ACL",
  "abi": [
    {
      "constant": true,
      "inputs": [
        {
          "name": "",
          "type": "uint256"
        }
      ],
      "name": "devices",
      "outputs": [
        {
          "name": "deviceId",
          "type": "uint256"
        },
        {
          "name": "deviceName",
          "type": "string"
        },
        {
          "name": "imageUrl",
          "type": "string"
        },
        {
          "name": "defaultOwner",
          "type": "address"
        }
      ],
      "payable": false,
      "stateMutability": "view",
      "type": "function"
    },
    {
      "constant": true,
      "inputs": [
        {
          "name": "",
          "type": "uint256"
        }
      ],
      "name": "deviceUserPermissionsCount",
      "outputs": [
        {
          "name": "",
          "type": "uint256"
        }
      ],
      "payable": false,
      "stateMutability": "view",
      "type": "function"
    },
    {
      "constant": true,
      "inputs": [],
      "name": "permissionsCount",
      "outputs": [
        {
          "name": "",
          "type": "uint256"
        }
      ],
      "payable": false,
      "stateMutability": "view",
      "type": "function"
    },
    {
      "constant": true,
      "inputs": [],
      "name": "devicesCount",
      "outputs": [
        {
          "name": "",
          "type": "uint256"
        }
      ],
      "payable": false,
      "stateMutability": "view",
      "type": "function"
    },
    {
      "constant": true,
      "inputs": [
        {
          "name": "",
          "type": "address"
        },
        {
          "name": "",
          "type": "uint256"
        }
      ],
      "name": "devicePermissions",
      "outputs": [
        {
          "name": "",
          "type": "uint256"
        }
      ],
      "payable": false,
      "stateMutability": "view",
      "type": "function"
    },
    {
      "constant": true,
      "inputs": [
        {
          "name": "",
          "type": "uint256"
        },
        {
          "name": "",
          "type": "uint256"
        }
      ],
      "name": "deviceUserPermissions",
      "outputs": [
        {
          "name": "",
          "type": "address"
        }
      ],
      "payable": false,
      "stateMutability": "view",
      "type": "function"
    },
    {
      "constant": true,
      "inputs": [
        {
          "name": "",
          "type": "address"
        },
        {
          "name": "",
          "type": "uint256"
        }
      ],
      "name": "userDevices",
      "outputs": [
        {
          "name": "",
          "type": "uint256"
        }
      ],
      "payable": false,
      "stateMutability": "view",
      "type": "function"
    },
    {
      "inputs": [],
      "payable": false,
      "stateMutability": "nonpayable",
      "type": "constructor"
    },
    {
      "anonymous": false,
      "inputs": [
        {
          "indexed": false,
          "name": "deviceId",
          "type": "uint256"
        },
        {
          "indexed": false,
          "name": "deviceName",
          "type": "string"
        }
      ],
      "name": "deviceAdded",
      "type": "event"
    },
    {
      "anonymous": false,
      "inputs": [
        {
          "indexed": false,
          "name": "deviceId",
          "type": "uint256"
        },
        {
          "indexed": false,
          "name": "deviceName",
          "type": "string"
        }
      ],
      "name": "deviceDeleted",
      "type": "event"
    },
    {
      "anonymous": false,
      "inputs": [
        {
          "indexed": false,
          "name": "deviceId",
          "type": "uint256"
        },
        {
          "indexed": false,
          "name": "deviceName",
          "type": "string"
        },
        {
          "indexed": false,
          "name": "user",
          "type": "address"
        }
      ],
      "name": "deviceCheckedPermission",
      "type": "event"
    },
    {
      "anonymous": false,
      "inputs": [
        {
          "indexed": false,
          "name": "deviceId",
          "type": "uint256"
        },
        {
          "indexed": false,
          "name": "deviceName",
          "type": "string"
        },
        {
          "indexed": false,
          "name": "user",
          "type": "address"
        }
      ],
      "name": "deviceAddedPermission",
      "type": "event"
    },
    {
      "anonymous": false,
      "inputs": [
        {
          "indexed": false,
          "name": "user",
          "type": "address"
        }
      ],
      "name": "getDevices",
      "type": "event"
    },
    {
      "anonymous": false,
      "inputs": [
        {
          "indexed": false,
          "name": "deviceId",
          "type": "uint256"
        },
        {
          "indexed": false,
          "name": "userTarget",
          "type": "address"
        }
      ],
      "name": "removePermission",
      "type": "event"
    },
    {
      "constant": true,
      "inputs": [],
      "name": "getUserDevices",
      "outputs": [
        {
          "name": "",
          "type": "uint256[]"
        }
      ],
      "payable": false,
      "stateMutability": "view",
      "type": "function"
    },
    {
      "constant": true,
      "inputs": [],
      "name": "getDevicePermissions",
      "outputs": [
        {
          "name": "",
          "type": "uint256[]"
        }
      ],
      "payable": false,
      "stateMutability": "view",
      "type": "function"
    },
    {
      "constant": true,
      "inputs": [
        {
          "name": "deviceId",
          "type": "uint256"
        }
      ],
      "name": "getDeviceUserPermissions",
      "outputs": [
        {
          "name": "",
          "type": "address[]"
        }
      ],
      "payable": false,
      "stateMutability": "view",
      "type": "function"
    },
    {
      "constant": false,
      "inputs": [
        {
          "name": "deviceName",
          "type": "string"
        },
        {
          "name": "imageUrl",
          "type": "string"
        }
      ],
      "name": "addDevice",
      "outputs": [
        {
          "name": "",
          "type": "uint256[]"
        }
      ],
      "payable": false,
      "stateMutability": "nonpayable",
      "type": "function"
    },
    {
      "constant": false,
      "inputs": [
        {
          "name": "deviceId",
          "type": "uint256"
        }
      ],
      "name": "deleteDevice",
      "outputs": [
        {
          "name": "",
          "type": "uint256[]"
        }
      ],
      "payable": false,
      "stateMutability": "nonpayable",
      "type": "function"
    },
    {
      "constant": false,
      "inputs": [
        {
          "name": "deviceId",
          "type": "uint256"
        },
        {
          "name": "userTarget",
          "type": "address"
        }
      ],
      "name": "addPermission",
      "outputs": [],
      "payable": false,
      "stateMutability": "nonpayable",
      "type": "function"
    },
    {
      "constant": false,
      "inputs": [],
      "name": "getDevicesByUser",
      "outputs": [
        {
          "name": "",
          "type": "uint256[]"
        }
      ],
      "payable": false,
      "stateMutability": "nonpayable",
      "type": "function"
    },
    {
      "constant": false,
      "inputs": [
        {
          "name": "deviceId",
          "type": "uint256"
        }
      ],
      "name": "getDevice",
      "outputs": [
        {
          "components": [
            {
              "name": "deviceId",
              "type": "uint256"
            },
            {
              "name": "deviceName",
              "type": "string"
            },
            {
              "name": "imageUrl",
              "type": "string"
            },
            {
              "name": "defaultOwner",
              "type": "address"
            }
          ],
          "name": "",
          "type": "tuple"
        }
      ],
      "payable": false,
      "stateMutability": "nonpayable",
      "type": "function"
    },
    {
      "constant": false,
      "inputs": [
        {
          "name": "deviceId",
          "type": "uint256"
        },
        {
          "name": "userTarget",
          "type": "address"
        }
      ],
      "name": "removePermissionFromDevice",
      "outputs": [
        {
          "name": "res",
          "type": "bool"
        }
      ],
      "payable": false,
      "stateMutability": "nonpayable",
      "type": "function"
    },
    {
      "constant": true,
      "inputs": [
        {
          "name": "deviceId",
          "type": "uint256"
        }
      ],
      "name": "checkPermission",
      "outputs": [
        {
          "name": "",
          "type": "bool"
        }
      ],
      "payable": false,
      "stateMutability": "view",
      "type": "function"
    },
    {
      "constant": true,
      "inputs": [
        {
          "name": "deviceId",
          "type": "uint256"
        }
      ],
      "name": "getDeviceOwner",
      "outputs": [
        {
          "name": "",
          "type": "address"
        }
      ],
      "payable": false,
      "stateMutability": "view",
      "type": "function"
    }
  ],
  "bytecode": "0x608060405234801561001057600080fd5b50612529806100206000396000f3006080604052600436106100fc576000357c0100000000000000000000000000000000000000000000000000000000900463ffffffff168063021cb94d1461010157806309f110b11461013e57806310ff8e311461017b5780631502e3ad146101bb5780633e0214d0146101f8578063443eea4c14610223578063688db6671461024e57806374a1bd9814610279578063768d4fd2146102b6578063a05edf54146102f3578063ab7394991461031e578063acabe2271461035b578063b85d826114610398578063bec6d764146103d5578063c4be240b146103fe578063cd20c8881461043b578063d5928be914610478578063f9598c0f146104b5575b600080fd5b34801561010d57600080fd5b5061012860048036036101239190810190611ec0565b6104e0565b60405161013591906121bb565b60405180910390f35b34801561014a57600080fd5b5061016560048036036101609190810190611ec0565b610581565b604051610172919061221a565b60405180910390f35b34801561018757600080fd5b506101a2600480360361019d9190810190611ec0565b610753565b6040516101b294939291906122b0565b60405180910390f35b3480156101c757600080fd5b506101e260048036036101dd9190810190611ec0565b6108d3565b6040516101ef919061223c565b60405180910390f35b34801561020457600080fd5b5061020d6108eb565b60405161021a91906121dd565b60405180910390f35b34801561022f57600080fd5b50610238610980565b604051610245919061223c565b60405180910390f35b34801561025a57600080fd5b50610263610986565b60405161027091906121dd565b60405180910390f35b34801561028557600080fd5b506102a0600480360361029b9190810190611ec0565b610a1b565b6040516102ad91906121a0565b60405180910390f35b3480156102c257600080fd5b506102dd60048036036102d89190810190611ec0565b610a5b565b6040516102ea91906121dd565b60405180910390f35b3480156102ff57600080fd5b50610308610e0b565b604051610315919061223c565b60405180910390f35b34801561032a57600080fd5b5061034560048036036103409190810190611ec0565b610e11565b60405161035291906121ff565b60405180910390f35b34801561036757600080fd5b50610382600480360361037d9190810190611ee9565b610e24565b60405161038f91906121ff565b60405180910390f35b3480156103a457600080fd5b506103bf60048036036103ba9190810190611e54565b610fa9565b6040516103cc91906121dd565b60405180910390f35b3480156103e157600080fd5b506103fc60048036036103f79190810190611ee9565b6112db565b005b34801561040a57600080fd5b5061042560048036036104209190810190611e18565b611447565b604051610432919061223c565b60405180910390f35b34801561044757600080fd5b50610462600480360361045d9190810190611f25565b611477565b60405161046f91906121a0565b60405180910390f35b34801561048457600080fd5b5061049f600480360361049a9190810190611e18565b6114c4565b6040516104ac919061223c565b60405180910390f35b3480156104c157600080fd5b506104ca6114f4565b6040516104d791906121dd565b60405180910390f35b60606005600083815260200190815260200160002080548060200260200160405190810160405280929190818152602001828054801561057557602002820191906000526020600020905b8160009054906101000a900473ffffffffffffffffffffffffffffffffffffffff1673ffffffffffffffffffffffffffffffffffffffff168152602001906001019080831161052b575b50505050509050919050565b610589611adb565b600360008381526020019081526020016000206080604051908101604052908160008201548152602001600182018054600181600116156101000203166002900480601f01602080910402602001604051908101604052809291908181526020018280546001816001161561010002031660029004801561064b5780601f106106205761010080835404028352916020019161064b565b820191906000526020600020905b81548152906001019060200180831161062e57829003601f168201915b50505050508152602001600282018054600181600116156101000203166002900480601f0160208091040260200160405190810160405280929190818152602001828054600181600116156101000203166002900480156106ed5780601f106106c2576101008083540402835291602001916106ed565b820191906000526020600020905b8154815290600101906020018083116106d057829003601f168201915b505050505081526020016003820160009054906101000a900473ffffffffffffffffffffffffffffffffffffffff1673ffffffffffffffffffffffffffffffffffffffff1673ffffffffffffffffffffffffffffffffffffffff16815250509050919050565b6003602052806000526040600020600091509050806000015490806001018054600181600116156101000203166002900480601f0160208091040260200160405190810160405280929190818152602001828054600181600116156101000203166002900480156108055780601f106107da57610100808354040283529160200191610805565b820191906000526020600020905b8154815290600101906020018083116107e857829003601f168201915b505050505090806002018054600181600116156101000203166002900480601f0160208091040260200160405190810160405280929190818152602001828054600181600116156101000203166002900480156108a35780601f10610878576101008083540402835291602001916108a3565b820191906000526020600020905b81548152906001019060200180831161088657829003601f168201915b5050505050908060030160009054906101000a900473ffffffffffffffffffffffffffffffffffffffff16905084565b60066020528060005260406000206000915090505481565b6060600260003373ffffffffffffffffffffffffffffffffffffffff1673ffffffffffffffffffffffffffffffffffffffff16815260200190815260200160002080548060200260200160405190810160405280929190818152602001828054801561097657602002820191906000526020600020905b815481526020019060010190808311610962575b5050505050905090565b60015481565b6060600260003373ffffffffffffffffffffffffffffffffffffffff1673ffffffffffffffffffffffffffffffffffffffff168152602001908152602001600020805480602002602001604051908101604052809291908181526020018280548015610a1157602002820191906000526020600020905b8154815260200190600101908083116109fd575b5050505050905090565b60006003600083815260200190815260200160002060030160009054906101000a900473ffffffffffffffffffffffffffffffffffffffff169050919050565b60606000606060008060006060610a723389611589565b1515610a7d57600080fd5b610ac588600260003373ffffffffffffffffffffffffffffffffffffffff1673ffffffffffffffffffffffffffffffffffffffff1681526020019081526020016000206115f8565b95509550851515610ad557600080fd5b84600260003373ffffffffffffffffffffffffffffffffffffffff1673ffffffffffffffffffffffffffffffffffffffff1681526020019081526020016000209080519060200190610b28929190611b1a565b50600093505b6006600089815260200190815260200160002054841015610c75576005600089815260200190815260200160002084815481101515610b6957fe5b9060005260206000200160009054906101000a900473ffffffffffffffffffffffffffffffffffffffff169250610bde88600460008673ffffffffffffffffffffffffffffffffffffffff1673ffffffffffffffffffffffffffffffffffffffff1681526020019081526020016000206115f8565b91509150600115158215151415610c685780600460008573ffffffffffffffffffffffffffffffffffffffff1673ffffffffffffffffffffffffffffffffffffffff1681526020019081526020016000209080519060200190610c42929190611b1a565b506006600089815260200190815260200160002060008154809291906001900391905055505b8380600101945050610b2e565b600560008981526020019081526020016000206000610c949190611b67565b60066000898152602001908152602001600020600090557faff17fc9aa60680e5f86f048f99531c0bd2419b4ca5fb254888fa424da08a30288600360008b8152602001908152602001600020600101604051610cf1929190612303565b60405180910390a160036000898152602001908152602001600020600080820160009055600182016000610d259190611b88565b600282016000610d359190611b88565b6003820160006101000a81549073ffffffffffffffffffffffffffffffffffffffff02191690555050600080815480929190600190039190505550600260003373ffffffffffffffffffffffffffffffffffffffff1673ffffffffffffffffffffffffffffffffffffffff168152602001908152602001600020805480602002602001604051908101604052809291908181526020018280548015610df957602002820191906000526020600020905b815481526020019060010190808311610de5575b50505050509650505050505050919050565b60005481565b6000610e1d338361176b565b9050919050565b600080606060006060610e373388611589565b1515610e4257600080fd5b610e8a87600460008973ffffffffffffffffffffffffffffffffffffffff1673ffffffffffffffffffffffffffffffffffffffff1681526020019081526020016000206115f8565b93509350831515610e9a57600080fd5b600660008881526020019081526020016000206000815480929190600190039190505550610eda86600560008a8152602001908152602001600020611856565b91509150811515610eea57600080fd5b80600560008981526020019081526020016000209080519060200190610f11929190611bd0565b5082600460003373ffffffffffffffffffffffffffffffffffffffff1673ffffffffffffffffffffffffffffffffffffffff1681526020019081526020016000209080519060200190610f65929190611b1a565b507f35c0df750f2696a7cb079447978f4b6b656fecdcc040884580a9414d432d13408787604051610f97929190612257565b60405180910390a15050505092915050565b6060600080815480929190600101919050555060806040519081016040528060005481526020018481526020018381526020013373ffffffffffffffffffffffffffffffffffffffff168152506003600080548152602001908152602001600020600082015181600001556020820151816001019080519060200190611030929190611c5a565b50604082015181600201908051906020019061104d929190611c5a565b5060608201518160030160006101000a81548173ffffffffffffffffffffffffffffffffffffffff021916908373ffffffffffffffffffffffffffffffffffffffff160217905550905050600260003373ffffffffffffffffffffffffffffffffffffffff1673ffffffffffffffffffffffffffffffffffffffff1681526020019081526020016000206000549080600181540180825580915050906001820390600052602060002001600090919290919091505550600460003373ffffffffffffffffffffffffffffffffffffffff1673ffffffffffffffffffffffffffffffffffffffff168152602001908152602001600020600054908060018154018082558091505090600182039060005260206000200160009091929091909150555060056000805481526020019081526020016000203390806001815401808255809150509060018203906000526020600020016000909192909190916101000a81548173ffffffffffffffffffffffffffffffffffffffff021916908373ffffffffffffffffffffffffffffffffffffffff160217905550506006600080548152602001908152602001600020600081548092919060010191905055507fea8cf3fd663f00ae8821edf5e0b975fab9675614718aab9f7d8c6b236b7ada826000548460405161123d929190612280565b60405180910390a1600260003373ffffffffffffffffffffffffffffffffffffffff1673ffffffffffffffffffffffffffffffffffffffff1681526020019081526020016000208054806020026020016040519081016040528092919081815260200182805480156112ce57602002820191906000526020600020905b8154815260200190600101908083116112ba575b5050505050905092915050565b6112e53383611589565b15156112f057600080fd5b600460008273ffffffffffffffffffffffffffffffffffffffff1673ffffffffffffffffffffffffffffffffffffffff168152602001908152602001600020829080600181540180825580915050906001820390600052602060002001600090919290919091505550600560008381526020019081526020016000208190806001815401808255809150509060018203906000526020600020016000909192909190916101000a81548173ffffffffffffffffffffffffffffffffffffffff021916908373ffffffffffffffffffffffffffffffffffffffff1602179055505060066000838152602001908152602001600020600081548092919060010191905055507f1842c31a09462f938c2e54f7072eab44b558d3b1f37e56d580f0137dafd3844082600360008581526020019081526020016000206001018360405161143b93929190612333565b60405180910390a15050565b60046020528160005260406000208181548110151561146257fe5b90600052602060002001600091509150505481565b60056020528160005260406000208181548110151561149257fe5b906000526020600020016000915091509054906101000a900473ffffffffffffffffffffffffffffffffffffffff1681565b6002602052816000526040600020818154811015156114df57fe5b90600052602060002001600091509150505481565b6060600460003373ffffffffffffffffffffffffffffffffffffffff1673ffffffffffffffffffffffffffffffffffffffff16815260200190815260200160002080548060200260200160405190810160405280929190818152602001828054801561157f57602002820191906000526020600020905b81548152602001906001019080831161156b575b5050505050905090565b60008273ffffffffffffffffffffffffffffffffffffffff166003600084815260200190815260200160002060030160009054906101000a900473ffffffffffffffffffffffffffffffffffffffff1673ffffffffffffffffffffffffffffffffffffffff1614905092915050565b60006060600080600091505b848054905082101561170857848281548110151561161e57fe5b90600052602060002001548614156116fb578190505b600185805490500382101561168857846001820181548110151561165457fe5b9060005260206000200154858281548110151561166d57fe5b90600052602060002001819055508180600101925050611634565b8480548091906001900361169c9190611cda565b50600185808054806020026020016040519081016040528092919081815260200182805480156116eb57602002820191906000526020600020905b8154815260200190600101908083116116d7575b5050505050905093509350611762565b8180600101925050611604565b6000858080548060200260200160405190810160405280929190818152602001828054801561175657602002820191906000526020600020905b815481526020019060010190808311611742575b50505050509050935093505b50509250929050565b60006060600080600460008773ffffffffffffffffffffffffffffffffffffffff1673ffffffffffffffffffffffffffffffffffffffff1681526020019081526020016000208054806020026020016040519081016040528092919081815260200182805480156117fb57602002820191906000526020600020905b8154815260200190600101908083116117e7575b50505050509250600091505b825182101561184857828281518110151561181e57fe5b9060200190602002015190508481141561183b576001935061184d565b8180600101925050611807565b600093505b50505092915050565b60006060600080600091505b8480549050821015611a4257848281548110151561187c57fe5b9060005260206000200160009054906101000a900473ffffffffffffffffffffffffffffffffffffffff1673ffffffffffffffffffffffffffffffffffffffff168673ffffffffffffffffffffffffffffffffffffffff161415611a35578190505b600185805490500382101561198c5784600182018154811015156118fe57fe5b9060005260206000200160009054906101000a900473ffffffffffffffffffffffffffffffffffffffff16858281548110151561193757fe5b9060005260206000200160006101000a81548173ffffffffffffffffffffffffffffffffffffffff021916908373ffffffffffffffffffffffffffffffffffffffff16021790555081806001019250506118de565b848054809190600190036119a09190611d06565b5060018580805480602002602001604051908101604052809291908181526020018280548015611a2557602002820191906000526020600020905b8160009054906101000a900473ffffffffffffffffffffffffffffffffffffffff1673ffffffffffffffffffffffffffffffffffffffff16815260200190600101908083116119db575b5050505050905093509350611ad2565b8180600101925050611862565b60008580805480602002602001604051908101604052809291908181526020018280548015611ac657602002820191906000526020600020905b8160009054906101000a900473ffffffffffffffffffffffffffffffffffffffff1673ffffffffffffffffffffffffffffffffffffffff1681526020019060010190808311611a7c575b50505050509050935093505b50509250929050565b608060405190810160405280600081526020016060815260200160608152602001600073ffffffffffffffffffffffffffffffffffffffff1681525090565b828054828255906000526020600020908101928215611b56579160200282015b82811115611b55578251825591602001919060010190611b3a565b5b509050611b639190611d32565b5090565b5080546000825590600052602060002090810190611b859190611d32565b50565b50805460018160011615610100020316600290046000825580601f10611bae5750611bcd565b601f016020900490600052602060002090810190611bcc9190611d32565b5b50565b828054828255906000526020600020908101928215611c49579160200282015b82811115611c485782518260006101000a81548173ffffffffffffffffffffffffffffffffffffffff021916908373ffffffffffffffffffffffffffffffffffffffff16021790555091602001919060010190611bf0565b5b509050611c569190611d57565b5090565b828054600181600116156101000203166002900490600052602060002090601f016020900481019282601f10611c9b57805160ff1916838001178555611cc9565b82800160010185558215611cc9579182015b82811115611cc8578251825591602001919060010190611cad565b5b509050611cd69190611d32565b5090565b815481835581811115611d0157818360005260206000209182019101611d009190611d32565b5b505050565b815481835581811115611d2d57818360005260206000209182019101611d2c9190611d32565b5b505050565b611d5491905b80821115611d50576000816000905550600101611d38565b5090565b90565b611d9791905b80821115611d9357600081816101000a81549073ffffffffffffffffffffffffffffffffffffffff021916905550600101611d5d565b5090565b90565b6000611da68235612472565b905092915050565b600082601f8301121515611dc157600080fd5b8135611dd4611dcf8261239e565b612371565b91508082526020830160208301858383011115611df057600080fd5b611dfb83828461249c565b50505092915050565b6000611e108235612492565b905092915050565b60008060408385031215611e2b57600080fd5b6000611e3985828601611d9a565b9250506020611e4a85828601611e04565b9150509250929050565b60008060408385031215611e6757600080fd5b600083013567ffffffffffffffff811115611e8157600080fd5b611e8d85828601611dae565b925050602083013567ffffffffffffffff811115611eaa57600080fd5b611eb685828601611dae565b9150509250929050565b600060208284031215611ed257600080fd5b6000611ee084828501611e04565b91505092915050565b60008060408385031215611efc57600080fd5b6000611f0a85828601611e04565b9250506020611f1b85828601611d9a565b9150509250929050565b60008060408385031215611f3857600080fd5b6000611f4685828601611e04565b9250506020611f5785828601611e04565b9150509250929050565b611f6a8161243c565b82525050565b6000611f7b826123f6565b808452602084019350611f8d836123ca565b60005b82811015611fbf57611fa3868351611f61565b611fac82612422565b9150602086019550600181019050611f90565b50849250505092915050565b6000611fd682612401565b808452602084019350611fe8836123d7565b60005b8281101561201a57611ffe868351612191565b6120078261242f565b9150602086019550600181019050611feb565b50849250505092915050565b61202f8161245c565b82525050565b600061204082612417565b8084526120548160208601602086016124ab565b61205d816124de565b602085010191505092915050565b60006120768261240c565b80845261208a8160208601602086016124ab565b612093816124de565b602085010191505092915050565b6000815460018116600081146120be57600181146120de5761211f565b607f600283041680865260ff19831660208701526040860193505061211f565b600282048086526020860195506120f4856123e4565b60005b82811015612116578154818901526001820191506020810190506120f7565b80880195505050505b505092915050565b600060808301600083015161213f6000860182612191565b5060208301518482036020860152612157828261206b565b91505060408301518482036040860152612171828261206b565b91505060608301516121866060860182611f61565b508091505092915050565b61219a81612468565b82525050565b60006020820190506121b56000830184611f61565b92915050565b600060208201905081810360008301526121d58184611f70565b905092915050565b600060208201905081810360008301526121f78184611fcb565b905092915050565b60006020820190506122146000830184612026565b92915050565b600060208201905081810360008301526122348184612127565b905092915050565b60006020820190506122516000830184612191565b92915050565b600060408201905061226c6000830185612191565b6122796020830184611f61565b9392505050565b60006040820190506122956000830185612191565b81810360208301526122a78184612035565b90509392505050565b60006080820190506122c56000830187612191565b81810360208301526122d7818661206b565b905081810360408301526122eb818561206b565b90506122fa6060830184611f61565b95945050505050565b60006040820190506123186000830185612191565b818103602083015261232a81846120a1565b90509392505050565b60006060820190506123486000830186612191565b818103602083015261235a81856120a1565b90506123696040830184611f61565b949350505050565b6000604051905081810181811067ffffffffffffffff8211171561239457600080fd5b8060405250919050565b600067ffffffffffffffff8211156123b557600080fd5b601f19601f8301169050602081019050919050565b6000602082019050919050565b6000602082019050919050565b60008160005260206000209050919050565b600081519050919050565b600081519050919050565b600081519050919050565b600081519050919050565b6000602082019050919050565b6000602082019050919050565b600073ffffffffffffffffffffffffffffffffffffffff82169050919050565b60008115159050919050565b6000819050919050565b600073ffffffffffffffffffffffffffffffffffffffff82169050919050565b6000819050919050565b82818337600083830152505050565b60005b838110156124c95780820151818401526020810190506124ae565b838111156124d8576000848401525b50505050565b6000601f19601f83011690509190505600a265627a7a723058202ff571f747873ca7052521d2c8618aa193cd64c150f05d295b27aff8cfac07e26c6578706572696d656e74616cf50037",
  "source": "pragma experimental ABIEncoderV2;\n\n/**\n * The ACL contract does this and that...\n */\ncontract ACL {\n\n\tstruct Device {\n\t\tuint deviceId;\n\t\tstring deviceName;\n\t\tstring imageUrl;\n\t\taddress defaultOwner;\n\t}\n\n\tevent deviceAdded (uint deviceId, string deviceName);\n\tevent deviceDeleted (uint deviceId, string deviceName);\n\tevent deviceCheckedPermission(uint deviceId, string deviceName, address user);\n\tevent deviceAddedPermission(uint deviceId, string deviceName, address user);\n\tevent getDevices(address user);\n\tevent removePermission(uint deviceId, address userTarget);\n\t\n\n\tuint public devicesCount;\n\tuint public permissionsCount;\n\n\tmapping (address => uint[]) public userDevices;\n\tmapping (uint => Device) public devices;\n\tmapping (address => uint[]) public devicePermissions;\n\tmapping (uint => address[]) public deviceUserPermissions;\n\tmapping (uint => uint) public deviceUserPermissionsCount;\n\t\n\t\n\t\t\t\t\n\tconstructor() public {\n\t\t\n\t}\n\n\tfunction getUserDevices() public view returns(uint[] memory) {\n\t\treturn userDevices[msg.sender];\n\t}\n\n\tfunction getDevicePermissions() public view returns(uint[] memory) {\n\t\treturn devicePermissions[msg.sender];\n\t}\n\n\tfunction getDeviceUserPermissions(uint deviceId) public view returns(address[] memory) {\n\t\treturn deviceUserPermissions[deviceId];\n\t}\n\n\n\tfunction addDevice (string memory deviceName, string memory imageUrl) public returns(uint[] memory)  {\n\t\tdevicesCount ++;\n\t\tdevices[devicesCount] = Device(devicesCount, deviceName, imageUrl, msg.sender);\n\t\tuserDevices[msg.sender].push(devicesCount);\n\t\tdevicePermissions[msg.sender].push(devicesCount);\n\n\t\tdeviceUserPermissions[devicesCount].push(msg.sender);\n\n\t\tdeviceUserPermissionsCount[devicesCount] ++;\n\t\tdeviceAdded(devicesCount, deviceName);\n\t\treturn userDevices[msg.sender];\n\t}\n\n\tfunction deleteDevice (uint deviceId) public returns(uint[] memory){\n\t\t\n\t\trequire (checkOwner(msg.sender, deviceId));\n\n\t\t(bool status, uint[] memory newArray) = deleteElementInArray(deviceId, userDevices[msg.sender]);\n\n\t\trequire (status);\n\n\t\tuserDevices[msg.sender] = newArray;\n\n\t\tfor(uint i = 0; i < deviceUserPermissionsCount[deviceId];i++) {\n\t\t\taddress temp = deviceUserPermissions[deviceId][i];\n\n\t\t\t(bool statusPermission, uint[] memory newArrayPermissions) = deleteElementInArray(deviceId, devicePermissions[temp]);\n\n\t\t\tif(statusPermission == true) {\n\t\t\t\tdevicePermissions[temp] = newArrayPermissions;\n\t\t\t\tdeviceUserPermissionsCount[deviceId] --;\n\t\t\t}\n\n\t\t}\n\n\t\tdelete deviceUserPermissions[deviceId];\n\t\tdelete deviceUserPermissionsCount[deviceId];\n\n\t\tdeviceDeleted(deviceId, devices[deviceId].deviceName);\n\n\t\tdelete devices[deviceId];\n\t\tdevicesCount --;\n\t\t\n\t\treturn userDevices[msg.sender];\n\t}\n\t\n\tfunction checkPermission (uint deviceId) public view returns(bool) {\n\t\treturn checkPermission(msg.sender, deviceId);\n\t}\n\n\tfunction addPermission (uint deviceId, address userTarget) public {\n\t\t\n\t\trequire (checkOwner(msg.sender, deviceId));\n\n\t\tdevicePermissions[userTarget].push(deviceId);\n\t\tdeviceUserPermissions[deviceId].push(userTarget);\n\t\tdeviceUserPermissionsCount[deviceId] ++;\n\n\t\tdeviceAddedPermission(deviceId, devices[deviceId].deviceName, userTarget);\n\t}\n\t\n\tfunction getDevicesByUser() public returns(uint[] memory){\n\t\treturn userDevices[msg.sender];\n\t}\n\n\tfunction getDevice(uint deviceId) public returns(Device memory){\n\t\treturn devices[deviceId];\n\t}\n\n\tfunction removePermissionFromDevice (uint deviceId, address userTarget) returns(bool res) {\n\t\t\n\t\trequire (checkOwner(msg.sender, deviceId));\n\n\t\t(bool statusPermission, uint[] memory newArrayPermissions) = deleteElementInArray(deviceId, devicePermissions[userTarget]);\n\t\t\n\t\trequire (statusPermission);\n\t\tdeviceUserPermissionsCount[deviceId] --;\n\n\t\t(bool statusPermission2, address[] memory newDeviceUserPermissions) = deleteElementInArrayAddress(userTarget, deviceUserPermissions[deviceId]);\n\n\n\t\trequire (statusPermission2);\n\n\t\tdeviceUserPermissions[deviceId] = newDeviceUserPermissions;\n\t\t\n\t\tdevicePermissions[msg.sender] = newArrayPermissions;\n\n\t\tremovePermission(deviceId, userTarget);\n\t}\n\t\n\t\n\tfunction checkPermission(address user, uint deviceId) internal returns(bool){\n\t\tuint[] memory devPers= devicePermissions[user];\n\t\tfor(uint i = 0;i < devPers.length; i++) {\n\t\t\tuint temp = devPers[i];\n\t\t\tif(temp == deviceId) {\n\t\t\t\treturn true;\n\t\t\t}\n\t\t}\n\t\treturn false;\n\t}\n\t\n\tfunction checkOwner (address user, uint deviceId) internal returns(bool) {\n\t\treturn devices[deviceId].defaultOwner == user;\n\t}\n\n\tfunction getDeviceOwner(uint deviceId) public view returns(address) {\n\t\treturn devices[deviceId].defaultOwner;\n\t}\n\t\n\n\tfunction deleteElementInArrayAddress(address element, address[] storage arr) internal returns(bool, address[] memory) {\n\t\tfor(uint i = 0;i<arr.length;i++) {\n\t\t\tif(element == arr[i]) {\n\t\t\t\tfor(uint j = i;i<arr.length-1;i++) {\n\t\t\t\t\tarr[j] = arr[j+1];\n\t\t\t\t}\n\t\t\t\tarr.length --;\n\t\t\t\treturn (true, arr);\n\t\t\t}\n\t\t}\n\t\treturn (false, arr);\n\t}\n\n\tfunction deleteElementInArray(uint element, uint[] storage arr) internal returns(bool, uint[] memory) {\n\t\tfor(uint i = 0;i<arr.length;i++) {\n\t\t\tif(element == arr[i]) {\n\t\t\t\tfor(uint j = i;i<arr.length-1;i++) {\n\t\t\t\t\tarr[j] = arr[j+1];\n\t\t\t\t}\n\t\t\t\tarr.length --;\n\t\t\t\treturn (true, arr);\n\t\t\t}\n\t\t}\n\t\treturn (false, arr);\n\t}\n\t\n}\n\n",
  "sourcePath": "/home/rizqy/Documents/acl-blockchain/truffle-dummy/contracts/ACL.sol",
  "compiler": {
    "name": "solc",
    "version": "0.4.24+commit.e67f0147.Emscripten.clang"
  },
  "schemaVersion": "2.0.1",
  "updatedAt": "2018-12-19T00:09:17.253Z"
}